{
  "_format": "hh-sol-artifact-1",
  "contractName": "TournamentManager",
  "sourceName": "contracts/Tournament.sol",
  "abi": [
    {
      "anonymous": false,
      "inputs": [
        {
          "indexed": false,
          "internalType": "uint256",
          "name": "tournamentId",
          "type": "uint256"
        },
        {
          "indexed": false,
          "internalType": "uint256",
          "name": "user",
          "type": "uint256"
        },
        {
          "indexed": false,
          "internalType": "uint256",
          "name": "newScore",
          "type": "uint256"
        }
      ],
      "name": "ScoreUpdated",
      "type": "event"
    },
    {
      "anonymous": false,
      "inputs": [
        {
          "indexed": false,
          "internalType": "uint256",
          "name": "tournamentId",
          "type": "uint256"
        },
        {
          "indexed": false,
          "internalType": "uint256[]",
          "name": "users_id",
          "type": "uint256[]"
        }
      ],
      "name": "TournamentCreated",
      "type": "event"
    },
    {
      "inputs": [
        {
          "internalType": "uint256",
          "name": "_tournamentId",
          "type": "uint256"
        },
        {
          "internalType": "uint256[]",
          "name": "_users_id",
          "type": "uint256[]"
        }
      ],
      "name": "createTournament",
      "outputs": [],
      "stateMutability": "nonpayable",
      "type": "function"
    },
    {
      "inputs": [
        {
          "internalType": "uint256",
          "name": "_tournamentId",
          "type": "uint256"
        },
        {
          "internalType": "uint256",
          "name": "_user",
          "type": "uint256"
        }
      ],
      "name": "getScore",
      "outputs": [
        {
          "internalType": "uint256",
          "name": "",
          "type": "uint256"
        }
      ],
      "stateMutability": "view",
      "type": "function"
    },
    {
      "inputs": [
        {
          "internalType": "uint256",
          "name": "_tournamentId",
          "type": "uint256"
        }
      ],
      "name": "getWinner",
      "outputs": [
        {
          "internalType": "uint256",
          "name": "",
          "type": "uint256"
        }
      ],
      "stateMutability": "view",
      "type": "function"
    },
    {
      "inputs": [
        {
          "internalType": "uint256",
          "name": "",
          "type": "uint256"
        }
      ],
      "name": "tournaments",
      "outputs": [
        {
          "internalType": "uint256",
          "name": "id",
          "type": "uint256"
        },
        {
          "internalType": "bool",
          "name": "exists",
          "type": "bool"
        }
      ],
      "stateMutability": "view",
      "type": "function"
    },
    {
      "inputs": [
        {
          "internalType": "uint256",
          "name": "_tournamentId",
          "type": "uint256"
        },
        {
          "internalType": "uint256",
          "name": "_user",
          "type": "uint256"
        },
        {
          "internalType": "uint256",
          "name": "_score",
          "type": "uint256"
        }
      ],
      "name": "updateScore",
      "outputs": [],
      "stateMutability": "nonpayable",
      "type": "function"
    }
  ],
  "bytecode": "0x608060405234801561001057600080fd5b50610828806100206000396000f3fe608060405234801561001057600080fd5b50600436106100575760003560e01c80633e44103c1461005c5780633f0a92fb146100715780634129b2c9146100845780637503e1b7146100aa578063adc6ba73146100e9575b600080fd5b61006f61006a3660046105ff565b6100fc565b005b61006f61007f3660046106c9565b6101d9565b6100976100923660046106f5565b6102c9565b6040519081526020015b60405180910390f35b6100d46100b83660046106f5565b6000602081905290815260409020805460039091015460ff1682565b604080519283529015156020830152016100a1565b6100976100f736600461070e565b610474565b60008281526020819052604090206003015460ff16156101635760405162461bcd60e51b815260206004820152601960248201527f546f75726e616d656e7420616c7265616479206578697374730000000000000060448201526064015b60405180910390fd5b6000828152602081815260409091208381558251909161018a916001840191850190610589565b5060038101805460ff191660011790556040517fe89c1402e878eea31d8178f17bfa1c459a2547e92673a15642e74e2063a0fd76906101cc9085908590610730565b60405180910390a1505050565b60008381526020819052604090206003015460ff1661020a5760405162461bcd60e51b815260040161015a9061077e565b6000838152602081905260409020610222818461052d565b61026e5760405162461bcd60e51b815260206004820152601d60248201527f55736572206973206e6f7420696e2074686520746f75726e616d656e74000000604482015260640161015a565b600083815260028201602090815260409182902084905581518681529081018590529081018390527fb2383e82269e758b9ec0fc961ac69cecc166570a12068c11b3f9cf29c8de9e889060600160405180910390a150505050565b60008181526020819052604081206003015460ff166102fa5760405162461bcd60e51b815260040161015a9061077e565b600082815260208190526040902060018101546103595760405162461bcd60e51b815260206004820152601a60248201527f4e6f20757365727320696e2074686520746f75726e616d656e74000000000000604482015260640161015a565b600081600101600081548110610371576103716107b5565b60009182526020808320909101548083526002850190915260409091205490915060015b600184015481101561041b5760008460020160008660010184815481106103be576103be6107b5565b9060005260206000200154815260200190815260200160002054905082811115610408578460010182815481106103f7576103f76107b5565b906000526020600020015493508092505b5080610413816107cb565b915050610395565b508060021461046c5760405162461bcd60e51b815260206004820152601b60248201527f4e6f2077696e6e657220696e2074686520746f75726e616d656e740000000000604482015260640161015a565b509392505050565b60008281526020819052604081206003015460ff166104a55760405162461bcd60e51b815260040161015a9061077e565b60008381526020819052604090206104bd818461052d565b6105095760405162461bcd60e51b815260206004820152601d60248201527f55736572206973206e6f7420696e2074686520746f75726e616d656e74000000604482015260640161015a565b50506000828152602081815260408083208484526002019091529020545b92915050565b6000805b600184015481101561057f5782846001018281548110610553576105536107b5565b90600052602060002001540361056d576001915050610527565b80610577816107cb565b915050610531565b5060009392505050565b8280548282559060005260206000209081019282156105c4579160200282015b828111156105c45782518255916020019190600101906105a9565b506105d09291506105d4565b5090565b5b808211156105d057600081556001016105d5565b634e487b7160e01b600052604160045260246000fd5b6000806040838503121561061257600080fd5b8235915060208084013567ffffffffffffffff8082111561063257600080fd5b818601915086601f83011261064657600080fd5b813581811115610658576106586105e9565b8060051b604051601f19603f8301168101818110858211171561067d5761067d6105e9565b60405291825284820192508381018501918983111561069b57600080fd5b938501935b828510156106b9578435845293850193928501926106a0565b8096505050505050509250929050565b6000806000606084860312156106de57600080fd5b505081359360208301359350604090920135919050565b60006020828403121561070757600080fd5b5035919050565b6000806040838503121561072157600080fd5b50508035926020909101359150565b6000604082018483526020604081850152818551808452606086019150828701935060005b8181101561077157845183529383019391830191600101610755565b5090979650505050505050565b60208082526019908201527f546f75726e616d656e7420646f6573206e6f7420657869737400000000000000604082015260600190565b634e487b7160e01b600052603260045260246000fd5b6000600182016107eb57634e487b7160e01b600052601160045260246000fd5b506001019056fea26469706673582212200176242ebcf38036f112ced91e5ea2fab768c2df9c2d450453cf8bdcff73e94b64736f6c63430008120033",
  "linkReferences": {},
  "deployedLinkReferences": {}
}