{
  "_format": "hh-sol-artifact-1",
  "contractName": "TournamentManager",
  "sourceName": "contracts/Tournament.sol",
  "abi": [
    {
      "anonymous": false,
      "inputs": [
        {
          "indexed": false,
          "internalType": "uint256",
          "name": "tournamentId",
          "type": "uint256"
        },
        {
          "indexed": false,
          "internalType": "uint256",
          "name": "user",
          "type": "uint256"
        },
        {
          "indexed": false,
          "internalType": "uint256",
          "name": "newScore",
          "type": "uint256"
        }
      ],
      "name": "ScoreUpdated",
      "type": "event"
    },
    {
      "anonymous": false,
      "inputs": [
        {
          "indexed": false,
          "internalType": "uint256",
          "name": "tournamentId",
          "type": "uint256"
        },
        {
          "indexed": false,
          "internalType": "uint256[]",
          "name": "users_id",
          "type": "uint256[]"
        }
      ],
      "name": "TournamentCreated",
      "type": "event"
    },
    {
      "inputs": [
        {
          "internalType": "uint256",
          "name": "_tournamentId",
          "type": "uint256"
        },
        {
          "internalType": "uint256[]",
          "name": "_users_id",
          "type": "uint256[]"
        }
      ],
      "name": "createTournament",
      "outputs": [],
      "stateMutability": "nonpayable",
      "type": "function"
    },
    {
      "inputs": [
        {
          "internalType": "uint256",
          "name": "_tournamentId",
          "type": "uint256"
        },
        {
          "internalType": "uint256",
          "name": "_user",
          "type": "uint256"
        }
      ],
      "name": "getScore",
      "outputs": [
        {
          "internalType": "uint256",
          "name": "",
          "type": "uint256"
        }
      ],
      "stateMutability": "view",
      "type": "function"
    },
    {
      "inputs": [],
      "name": "helloworld",
      "outputs": [
        {
          "internalType": "string",
          "name": "",
          "type": "string"
        }
      ],
      "stateMutability": "pure",
      "type": "function"
    },
    {
      "inputs": [
        {
          "internalType": "uint256",
          "name": "",
          "type": "uint256"
        }
      ],
      "name": "tournaments",
      "outputs": [
        {
          "internalType": "uint256",
          "name": "id",
          "type": "uint256"
        },
        {
          "internalType": "bool",
          "name": "exists",
          "type": "bool"
        }
      ],
      "stateMutability": "view",
      "type": "function"
    },
    {
      "inputs": [
        {
          "internalType": "uint256",
          "name": "_tournamentId",
          "type": "uint256"
        },
        {
          "internalType": "uint256",
          "name": "_user",
          "type": "uint256"
        },
        {
          "internalType": "uint256",
          "name": "_score",
          "type": "uint256"
        }
      ],
      "name": "updateScore",
      "outputs": [],
      "stateMutability": "nonpayable",
      "type": "function"
    }
  ],
  "bytecode": "0x608060405234801561001057600080fd5b5061070b806100206000396000f3fe608060405234801561001057600080fd5b50600436106100575760003560e01c80632f2f48591461005c5780633e44103c146100935780633f0a92fb146100a85780637503e1b7146100bb578063adc6ba73146100fa575b600080fd5b604080518082018252600c81526b48656c6c6f20576f726c642160a01b6020820152905161008a91906104b5565b60405180910390f35b6100a66100a1366004610519565b61011b565b005b6100a66100b63660046105e3565b6101f8565b6100e56100c936600461060f565b6000602081905290815260409020805460039091015460ff1682565b6040805192835290151560208301520161008a565b61010d610108366004610628565b610314565b60405190815260200161008a565b60008281526020819052604090206003015460ff16156101825760405162461bcd60e51b815260206004820152601960248201527f546f75726e616d656e7420616c7265616479206578697374730000000000000060448201526064015b60405180910390fd5b600082815260208181526040909120838155825190916101a9916001840191850190610455565b5060038101805460ff191660011790556040517fe89c1402e878eea31d8178f17bfa1c459a2547e92673a15642e74e2063a0fd76906101eb908590859061064a565b60405180910390a1505050565b60008381526020819052604090206003015460ff166102555760405162461bcd60e51b8152602060048201526019602482015278151bdd5c9b985b595b9d08191bd95cc81b9bdd08195e1a5cdd603a1b6044820152606401610179565b600083815260208190526040902061026d81846103f9565b6102b95760405162461bcd60e51b815260206004820152601d60248201527f55736572206973206e6f7420696e2074686520746f75726e616d656e740000006044820152606401610179565b600083815260028201602090815260409182902084905581518681529081018590529081018390527fb2383e82269e758b9ec0fc961ac69cecc166570a12068c11b3f9cf29c8de9e889060600160405180910390a150505050565b60008281526020819052604081206003015460ff166103715760405162461bcd60e51b8152602060048201526019602482015278151bdd5c9b985b595b9d08191bd95cc81b9bdd08195e1a5cdd603a1b6044820152606401610179565b600083815260208190526040902061038981846103f9565b6103d55760405162461bcd60e51b815260206004820152601d60248201527f55736572206973206e6f7420696e2074686520746f75726e616d656e740000006044820152606401610179565b50506000828152602081815260408083208484526002019091529020545b92915050565b6000805b600184015481101561044b578284600101828154811061041f5761041f610698565b9060005260206000200154036104395760019150506103f3565b80610443816106ae565b9150506103fd565b5060009392505050565b828054828255906000526020600020908101928215610490579160200282015b82811115610490578251825591602001919060010190610475565b5061049c9291506104a0565b5090565b5b8082111561049c57600081556001016104a1565b600060208083528351808285015260005b818110156104e2578581018301518582016040015282016104c6565b506000604082860101526040601f19601f8301168501019250505092915050565b634e487b7160e01b600052604160045260246000fd5b6000806040838503121561052c57600080fd5b8235915060208084013567ffffffffffffffff8082111561054c57600080fd5b818601915086601f83011261056057600080fd5b81358181111561057257610572610503565b8060051b604051601f19603f8301168101818110858211171561059757610597610503565b6040529182528482019250838101850191898311156105b557600080fd5b938501935b828510156105d3578435845293850193928501926105ba565b8096505050505050509250929050565b6000806000606084860312156105f857600080fd5b505081359360208301359350604090920135919050565b60006020828403121561062157600080fd5b5035919050565b6000806040838503121561063b57600080fd5b50508035926020909101359150565b6000604082018483526020604081850152818551808452606086019150828701935060005b8181101561068b5784518352938301939183019160010161066f565b5090979650505050505050565b634e487b7160e01b600052603260045260246000fd5b6000600182016106ce57634e487b7160e01b600052601160045260246000fd5b506001019056fea2646970667358221220f773a18c36ee4042d7356dc3401665ffab8dbdb87919e7d36fa0304620af452364736f6c63430008120033",
  "linkReferences": {},
  "deployedLinkReferences": {}
}